:03000000020016E5
:1000130002027775841078FFE4F6D8FD75813E906F
:10002300908074A5F0908020740093909082F07477
:1000330030909083F09090F0E04480F0758AA09027
:100043008027740093F58A908026740093F5899035
:100053009080745AF00200960201CBE493A3F8E473
:1000630093A34003F68001F208DFF48029E493A30D
:10007300F85407240CC8C333C4540F4420C8834026
:1000830004F456800146F6DFE4800B0102040810F5
:1000930020408090024DE47E019360BCA3FF543F57
:1000A30030E509541FFEE493A360010ECF54C0252D
:1000B300E060A840B8E493A3FAE493A3F8E493A31D
:1000C300C8C582C8CAC583CAF0A3C8C582C8CAC581
:1000D30083CADFE9DEE780BEE4F580758BFE90918D
:1000E3000004F0E4F58E759201F595909130E0549B
:1000F300F0F0E0540FF0A3E054F0F0E0540FF0A35D
:10010300E054F0F0E0540FF0A3E054F0F0E0540FAB
:10011300F0E4F590758CFF909101F0F58FF593F570
:1001230096F5FB909134E054F0F0E0540FF0A3E027
:1001330054F0F0E0540FF0A3E054F0F0E0540FF06B
:10014300A3E054F0F0E0540FF0E4F5A0758DFF90B8
:100153009102F0F591F594F597909138E054F0F011
:10016300E0540FF02243E11F53E7EFE4F5EF53F3BD
:100173007F53A97F53A57F53AE7F53A27FC2904382
:100183009201909185E054FEF0909184E054FEF04A
:10019300909182E054FEF0909180E04401F0C29887
:1001A3007584FFC2EF90902074A5F0909027741887
:1001B300F0909020745AF07587507587017587A069
:1001C30043A280C298D2EF221202621200DB75842E
:1001D30015D202D2E8D2EF75855A3008FAC2081256
:1001E30002012002142080110508E508C39414407D
:1001F300E6E4F50812016880DEE4F50880D9308072
:1002030021052CE52C7002052BC39414E52B9400D7
:100213004017E4F52BF52C200A0FD20AA202B39261
:100223000222C20AE4F52BF52C2290902074A5F04B
:10023300A3E09000FFF0E054F0F0E04403F0E0901E
:100243009021F0909020745AF0220126000138008A
:1002530001370002300000023C0000013E0000753F
:10026300A67D43A24053A2F043A20F43A280439D25
:1002730001D2E922C0D030A809C2A8A290B39290BB
:05028300D208D0D032CA
:00000001FF
